{
  "_format": "hh-sol-artifact-1",
  "contractName": "FundBase",
  "sourceName": "contracts/FundBase.sol",
  "abi": [
    {
      "inputs": [
        {
          "internalType": "address",
          "name": "token",
          "type": "address"
        }
      ],
      "name": "SafeERC20FailedOperation",
      "type": "error"
    },
    {
      "anonymous": false,
      "inputs": [
        {
          "indexed": true,
          "internalType": "string",
          "name": "id",
          "type": "string"
        },
        {
          "indexed": false,
          "internalType": "address",
          "name": "creator",
          "type": "address"
        },
        {
          "indexed": false,
          "internalType": "address",
          "name": "token",
          "type": "address"
        },
        {
          "indexed": false,
          "internalType": "uint256",
          "name": "amount",
          "type": "uint256"
        }
      ],
      "name": "FundsWithdrawn",
      "type": "event"
    },
    {
      "anonymous": false,
      "inputs": [
        {
          "indexed": true,
          "internalType": "string",
          "name": "id",
          "type": "string"
        },
        {
          "indexed": false,
          "internalType": "address",
          "name": "backer",
          "type": "address"
        },
        {
          "indexed": false,
          "internalType": "address",
          "name": "token",
          "type": "address"
        },
        {
          "indexed": false,
          "internalType": "uint256",
          "name": "amount",
          "type": "uint256"
        }
      ],
      "name": "IdeaBacked",
      "type": "event"
    },
    {
      "anonymous": false,
      "inputs": [
        {
          "indexed": true,
          "internalType": "string",
          "name": "id",
          "type": "string"
        },
        {
          "indexed": false,
          "internalType": "string",
          "name": "title",
          "type": "string"
        },
        {
          "indexed": false,
          "internalType": "address",
          "name": "creator",
          "type": "address"
        }
      ],
      "name": "IdeaPosted",
      "type": "event"
    },
    {
      "inputs": [],
      "name": "ETH",
      "outputs": [
        {
          "internalType": "address",
          "name": "",
          "type": "address"
        }
      ],
      "stateMutability": "view",
      "type": "function"
    },
    {
      "inputs": [],
      "name": "USDC",
      "outputs": [
        {
          "internalType": "address",
          "name": "",
          "type": "address"
        }
      ],
      "stateMutability": "view",
      "type": "function"
    },
    {
      "inputs": [],
      "name": "ZORA",
      "outputs": [
        {
          "internalType": "address",
          "name": "",
          "type": "address"
        }
      ],
      "stateMutability": "view",
      "type": "function"
    },
    {
      "inputs": [
        {
          "internalType": "string",
          "name": "_id",
          "type": "string"
        }
      ],
      "name": "backIdeaWithETH",
      "outputs": [],
      "stateMutability": "payable",
      "type": "function"
    },
    {
      "inputs": [
        {
          "internalType": "string",
          "name": "_id",
          "type": "string"
        },
        {
          "internalType": "address",
          "name": "_token",
          "type": "address"
        },
        {
          "internalType": "uint256",
          "name": "_amount",
          "type": "uint256"
        }
      ],
      "name": "backIdeaWithToken",
      "outputs": [],
      "stateMutability": "nonpayable",
      "type": "function"
    },
    {
      "inputs": [
        {
          "internalType": "string",
          "name": "",
          "type": "string"
        },
        {
          "internalType": "uint256",
          "name": "",
          "type": "uint256"
        }
      ],
      "name": "backers",
      "outputs": [
        {
          "internalType": "address",
          "name": "wallet",
          "type": "address"
        },
        {
          "internalType": "address",
          "name": "token",
          "type": "address"
        },
        {
          "internalType": "uint256",
          "name": "amount",
          "type": "uint256"
        },
        {
          "internalType": "uint256",
          "name": "timestamp",
          "type": "uint256"
        }
      ],
      "stateMutability": "view",
      "type": "function"
    },
    {
      "inputs": [],
      "name": "getAllIdeas",
      "outputs": [
        {
          "components": [
            {
              "internalType": "string",
              "name": "id",
              "type": "string"
            },
            {
              "internalType": "string",
              "name": "title",
              "type": "string"
            },
            {
              "internalType": "string",
              "name": "description",
              "type": "string"
            },
            {
              "internalType": "address",
              "name": "creator",
              "type": "address"
            },
            {
              "internalType": "uint256",
              "name": "totalRaisedETH",
              "type": "uint256"
            },
            {
              "internalType": "uint256",
              "name": "backerCount",
              "type": "uint256"
            },
            {
              "internalType": "uint256",
              "name": "createdAt",
              "type": "uint256"
            },
            {
              "internalType": "bool",
              "name": "exists",
              "type": "bool"
            }
          ],
          "internalType": "struct FundBase.Idea[]",
          "name": "",
          "type": "tuple[]"
        }
      ],
      "stateMutability": "view",
      "type": "function"
    },
    {
      "inputs": [
        {
          "internalType": "string",
          "name": "_id",
          "type": "string"
        }
      ],
      "name": "getAllTokenBalances",
      "outputs": [
        {
          "components": [
            {
              "internalType": "address",
              "name": "token",
              "type": "address"
            },
            {
              "internalType": "uint256",
              "name": "amount",
              "type": "uint256"
            }
          ],
          "internalType": "struct FundBase.TokenBalance[]",
          "name": "",
          "type": "tuple[]"
        }
      ],
      "stateMutability": "view",
      "type": "function"
    },
    {
      "inputs": [
        {
          "internalType": "string",
          "name": "_id",
          "type": "string"
        }
      ],
      "name": "getBackers",
      "outputs": [
        {
          "components": [
            {
              "internalType": "address",
              "name": "wallet",
              "type": "address"
            },
            {
              "internalType": "address",
              "name": "token",
              "type": "address"
            },
            {
              "internalType": "uint256",
              "name": "amount",
              "type": "uint256"
            },
            {
              "internalType": "uint256",
              "name": "timestamp",
              "type": "uint256"
            }
          ],
          "internalType": "struct FundBase.Backer[]",
          "name": "",
          "type": "tuple[]"
        }
      ],
      "stateMutability": "view",
      "type": "function"
    },
    {
      "inputs": [
        {
          "internalType": "string",
          "name": "_id",
          "type": "string"
        }
      ],
      "name": "getIdea",
      "outputs": [
        {
          "components": [
            {
              "internalType": "string",
              "name": "id",
              "type": "string"
            },
            {
              "internalType": "string",
              "name": "title",
              "type": "string"
            },
            {
              "internalType": "string",
              "name": "description",
              "type": "string"
            },
            {
              "internalType": "address",
              "name": "creator",
              "type": "address"
            },
            {
              "internalType": "uint256",
              "name": "totalRaisedETH",
              "type": "uint256"
            },
            {
              "internalType": "uint256",
              "name": "backerCount",
              "type": "uint256"
            },
            {
              "internalType": "uint256",
              "name": "createdAt",
              "type": "uint256"
            },
            {
              "internalType": "bool",
              "name": "exists",
              "type": "bool"
            }
          ],
          "internalType": "struct FundBase.Idea",
          "name": "",
          "type": "tuple"
        }
      ],
      "stateMutability": "view",
      "type": "function"
    },
    {
      "inputs": [],
      "name": "getIdeaCount",
      "outputs": [
        {
          "internalType": "uint256",
          "name": "",
          "type": "uint256"
        }
      ],
      "stateMutability": "view",
      "type": "function"
    },
    {
      "inputs": [
        {
          "internalType": "string",
          "name": "_id",
          "type": "string"
        },
        {
          "internalType": "address",
          "name": "_token",
          "type": "address"
        }
      ],
      "name": "getTokenBalance",
      "outputs": [
        {
          "internalType": "uint256",
          "name": "",
          "type": "uint256"
        }
      ],
      "stateMutability": "view",
      "type": "function"
    },
    {
      "inputs": [
        {
          "internalType": "string",
          "name": "",
          "type": "string"
        },
        {
          "internalType": "address",
          "name": "",
          "type": "address"
        }
      ],
      "name": "hasBacked",
      "outputs": [
        {
          "internalType": "bool",
          "name": "",
          "type": "bool"
        }
      ],
      "stateMutability": "view",
      "type": "function"
    },
    {
      "inputs": [
        {
          "internalType": "string",
          "name": "_id",
          "type": "string"
        },
        {
          "internalType": "address",
          "name": "_user",
          "type": "address"
        }
      ],
      "name": "hasUserBacked",
      "outputs": [
        {
          "internalType": "bool",
          "name": "",
          "type": "bool"
        }
      ],
      "stateMutability": "view",
      "type": "function"
    },
    {
      "inputs": [
        {
          "internalType": "uint256",
          "name": "",
          "type": "uint256"
        }
      ],
      "name": "ideaIds",
      "outputs": [
        {
          "internalType": "string",
          "name": "",
          "type": "string"
        }
      ],
      "stateMutability": "view",
      "type": "function"
    },
    {
      "inputs": [
        {
          "internalType": "string",
          "name": "",
          "type": "string"
        }
      ],
      "name": "ideas",
      "outputs": [
        {
          "internalType": "string",
          "name": "id",
          "type": "string"
        },
        {
          "internalType": "string",
          "name": "title",
          "type": "string"
        },
        {
          "internalType": "string",
          "name": "description",
          "type": "string"
        },
        {
          "internalType": "address",
          "name": "creator",
          "type": "address"
        },
        {
          "internalType": "uint256",
          "name": "totalRaisedETH",
          "type": "uint256"
        },
        {
          "internalType": "uint256",
          "name": "backerCount",
          "type": "uint256"
        },
        {
          "internalType": "uint256",
          "name": "createdAt",
          "type": "uint256"
        },
        {
          "internalType": "bool",
          "name": "exists",
          "type": "bool"
        }
      ],
      "stateMutability": "view",
      "type": "function"
    },
    {
      "inputs": [
        {
          "internalType": "string",
          "name": "_id",
          "type": "string"
        },
        {
          "internalType": "string",
          "name": "_title",
          "type": "string"
        },
        {
          "internalType": "string",
          "name": "_description",
          "type": "string"
        }
      ],
      "name": "postIdea",
      "outputs": [],
      "stateMutability": "nonpayable",
      "type": "function"
    },
    {
      "inputs": [
        {
          "internalType": "string",
          "name": "",
          "type": "string"
        },
        {
          "internalType": "address",
          "name": "",
          "type": "address"
        }
      ],
      "name": "tokenBalances",
      "outputs": [
        {
          "internalType": "uint256",
          "name": "",
          "type": "uint256"
        }
      ],
      "stateMutability": "view",
      "type": "function"
    },
    {
      "inputs": [
        {
          "internalType": "string",
          "name": "_id",
          "type": "string"
        }
      ],
      "name": "withdrawFunds",
      "outputs": [],
      "stateMutability": "nonpayable",
      "type": "function"
    }
  ],
  "bytecode": "0x608060405234801561001057600080fd5b50614101806100206000396000f3fe6080604052600436106101145760003560e01c80638322fff2116100a0578063be2aa1c911610064578063be2aa1c9146103cd578063c4e525bf1461040a578063c6ba010714610435578063cfa9e66f14610479578063f6160d24146104b657610114565b80638322fff2146102f357806389a302711461031e578063a3078cfe14610349578063b94abab514610386578063bab73eab146103a257610114565b80633a9e6af0116100e75780633a9e6af0146101e55780633cd70aa7146102105780633cdb9762146102395780636b03e1b0146102765780636d25a5f3146102b357610114565b806303b86b5a146101195780630521a0881461014257806317815cce1461017f5780633645b824146101bc575b600080fd5b34801561012557600080fd5b50610140600480360381019061013b9190612b48565b6104f3565b005b34801561014e57600080fd5b5061016960048036038101906101649190612bef565b610b1d565b6040516101769190612c66565b60405180910390f35b34801561018b57600080fd5b506101a660048036038101906101a19190612bef565b610b62565b6040516101b39190612c9a565b60405180910390f35b3480156101c857600080fd5b506101e360048036038101906101de9190612cb5565b610b9d565b005b3480156101f157600080fd5b506101fa610e9e565b6040516102079190612f88565b60405180910390f35b34801561021c57600080fd5b5061023760048036038101906102329190612fd6565b6111d2565b005b34801561024557600080fd5b50610260600480360381019061025b9190612bef565b61181a565b60405161026d9190612c9a565b60405180910390f35b34801561028257600080fd5b5061029d60048036038101906102989190612b48565b611880565b6040516102aa9190613149565b60405180910390f35b3480156102bf57600080fd5b506102da60048036038101906102d5919061316b565b6119bd565b6040516102ea94939291906131d6565b60405180910390f35b3480156102ff57600080fd5b50610308611a60565b604051610315919061321b565b60405180910390f35b34801561032a57600080fd5b50610333611a65565b604051610340919061321b565b60405180910390f35b34801561035557600080fd5b50610370600480360381019061036b9190613236565b611a7d565b60405161037d91906132ad565b60405180910390f35b6103a0600480360381019061039b9190612b48565b611b29565b005b3480156103ae57600080fd5b506103b761201b565b6040516103c49190612c9a565b60405180910390f35b3480156103d957600080fd5b506103f460048036038101906103ef9190612b48565b612028565b604051610401919061338d565b60405180910390f35b34801561041657600080fd5b5061041f6122a6565b60405161042c919061321b565b60405180910390f35b34801561044157600080fd5b5061045c60048036038101906104579190612b48565b6122ab565b6040516104709897969594939291906133af565b60405180910390f35b34801561048557600080fd5b506104a0600480360381019061049b9190612b48565b6124ce565b6040516104ad9190613520565b60405180910390f35b3480156104c257600080fd5b506104dd60048036038101906104d89190612bef565b61274b565b6040516104ea9190612c66565b60405180910390f35b80600081604051610504919061357e565b908152602001604051809103902060070160009054906101000a900460ff16610562576040517f08c379a0000000000000000000000000000000000000000000000000000000008152600401610559906135e1565b60405180910390fd5b813373ffffffffffffffffffffffffffffffffffffffff1660008260405161058a919061357e565b908152602001604051809103902060030160009054906101000a900473ffffffffffffffffffffffffffffffffffffffff1673ffffffffffffffffffffffffffffffffffffffff1614610612576040517f08c379a00000000000000000000000000000000000000000000000000000000081526004016106099061364d565b60405180910390fd5b6000600384604051610624919061357e565b908152602001604051809103902060008073ffffffffffffffffffffffffffffffffffffffff1673ffffffffffffffffffffffffffffffffffffffff1681526020019081526020016000205490506000600385604051610684919061357e565b9081526020016040518091039020600073833589fcd6edb6e08f4c7c32d4f71b54bda0291373ffffffffffffffffffffffffffffffffffffffff1673ffffffffffffffffffffffffffffffffffffffff16815260200190815260200160002054905060006003866040516106f8919061357e565b908152602001604051809103902060008073ffffffffffffffffffffffffffffffffffffffff1673ffffffffffffffffffffffffffffffffffffffff16815260200190815260200160002054905060008311806107555750600082115b806107605750600081115b61079f576040517f08c379a0000000000000000000000000000000000000000000000000000000008152600401610796906136b9565b60405180910390fd5b60006003876040516107b1919061357e565b908152602001604051809103902060008073ffffffffffffffffffffffffffffffffffffffff1673ffffffffffffffffffffffffffffffffffffffff168152602001908152602001600020819055506000600387604051610812919061357e565b9081526020016040518091039020600073833589fcd6edb6e08f4c7c32d4f71b54bda0291373ffffffffffffffffffffffffffffffffffffffff1673ffffffffffffffffffffffffffffffffffffffff168152602001908152602001600020819055506000600387604051610887919061357e565b908152602001604051809103902060008073ffffffffffffffffffffffffffffffffffffffff1673ffffffffffffffffffffffffffffffffffffffff1681526020019081526020016000208190555060008311156109df5760003373ffffffffffffffffffffffffffffffffffffffff16846040516109059061370a565b60006040518083038185875af1925050503d8060008114610942576040519150601f19603f3d011682016040523d82523d6000602084013e610947565b606091505b505090508061098b576040517f08c379a00000000000000000000000000000000000000000000000000000000081526004016109829061376b565b60405180910390fd5b86604051610999919061357e565b60405180910390207f7ab1ff8e81b569d0367637809ff407d5219977be1d885e5fc95df35dfac98529336000876040516109d59392919061378b565b60405180910390a2505b6000821115610a8d57610a27338373833589fcd6edb6e08f4c7c32d4f71b54bda0291373ffffffffffffffffffffffffffffffffffffffff166127be9092919063ffffffff16565b85604051610a35919061357e565b60405180910390207f7ab1ff8e81b569d0367637809ff407d5219977be1d885e5fc95df35dfac985293373833589fcd6edb6e08f4c7c32d4f71b54bda0291385604051610a849392919061378b565b60405180910390a25b6000811115610b1557610ac23382600073ffffffffffffffffffffffffffffffffffffffff166127be9092919063ffffffff16565b85604051610ad0919061357e565b60405180910390207f7ab1ff8e81b569d0367637809ff407d5219977be1d885e5fc95df35dfac9852933600084604051610b0c9392919061378b565b60405180910390a25b505050505050565b6002828051602081018201805184825260208301602085012081835280955050505050506020528060005260406000206000915091509054906101000a900460ff1681565b600382805160208101820180518482526020830160208501208183528095505050505050602052806000526040600020600091509150505481565b6000835111610be1576040517f08c379a0000000000000000000000000000000000000000000000000000000008152600401610bd89061380e565b60405180910390fd5b6000825111610c25576040517f08c379a0000000000000000000000000000000000000000000000000000000008152600401610c1c9061387a565b60405180910390fd5b6000815111610c69576040517f08c379a0000000000000000000000000000000000000000000000000000000008152600401610c60906138e6565b60405180910390fd5b600083604051610c79919061357e565b908152602001604051809103902060070160009054906101000a900460ff1615610cd8576040517f08c379a0000000000000000000000000000000000000000000000000000000008152600401610ccf90613952565b60405180910390fd5b6040518061010001604052808481526020018381526020018281526020013373ffffffffffffffffffffffffffffffffffffffff168152602001600081526020016000815260200142815260200160011515815250600084604051610d3d919061357e565b90815260200160405180910390206000820151816000019081610d609190613b7e565b506020820151816001019081610d769190613b7e565b506040820151816002019081610d8c9190613b7e565b5060608201518160030160006101000a81548173ffffffffffffffffffffffffffffffffffffffff021916908373ffffffffffffffffffffffffffffffffffffffff1602179055506080820151816004015560a0820151816005015560c0820151816006015560e08201518160070160006101000a81548160ff021916908315150217905550905050600483908060018154018082558091505060019003906000526020600020016000909190919091509081610e499190613b7e565b5082604051610e58919061357e565b60405180910390207f4f5ec295e991570e2c8916da6e7b0282ef25e8ba59fa90f0f47e27f83f2f06ed8333604051610e91929190613c50565b60405180910390a2505050565b6060600060048054905067ffffffffffffffff811115610ec157610ec0612a1d565b5b604051908082528060200260200182016040528015610efa57816020015b610ee7612961565b815260200190600190039081610edf5790505b50905060005b6004805490508110156111ca57600060048281548110610f2357610f22613c80565b5b90600052602060002001604051610f3a9190613d32565b908152602001604051809103902060405180610100016040529081600082018054610f64906139a1565b80601f0160208091040260200160405190810160405280929190818152602001828054610f90906139a1565b8015610fdd5780601f10610fb257610100808354040283529160200191610fdd565b820191906000526020600020905b815481529060010190602001808311610fc057829003601f168201915b50505050508152602001600182018054610ff6906139a1565b80601f0160208091040260200160405190810160405280929190818152602001828054611022906139a1565b801561106f5780601f106110445761010080835404028352916020019161106f565b820191906000526020600020905b81548152906001019060200180831161105257829003601f168201915b50505050508152602001600282018054611088906139a1565b80601f01602080910402602001604051908101604052809291908181526020018280546110b4906139a1565b80156111015780601f106110d657610100808354040283529160200191611101565b820191906000526020600020905b8154815290600101906020018083116110e457829003601f168201915b505050505081526020016003820160009054906101000a900473ffffffffffffffffffffffffffffffffffffffff1673ffffffffffffffffffffffffffffffffffffffff1673ffffffffffffffffffffffffffffffffffffffff1681526020016004820154815260200160058201548152602001600682015481526020016007820160009054906101000a900460ff1615151515815250508282815181106111ac576111ab613c80565b5b602002602001018190525080806111c290613d78565b915050610f00565b508091505090565b826000816040516111e3919061357e565b908152602001604051809103902060070160009054906101000a900460ff16611241576040517f08c379a0000000000000000000000000000000000000000000000000000000008152600401611238906135e1565b60405180910390fd5b83600281604051611252919061357e565b908152602001604051809103902060003373ffffffffffffffffffffffffffffffffffffffff1673ffffffffffffffffffffffffffffffffffffffff16815260200190815260200160002060009054906101000a900460ff16156112eb576040517f08c379a00000000000000000000000000000000000000000000000000000000081526004016112e290613e0c565b60405180910390fd5b83600073ffffffffffffffffffffffffffffffffffffffff168173ffffffffffffffffffffffffffffffffffffffff161480611366575073833589fcd6edb6e08f4c7c32d4f71b54bda0291373ffffffffffffffffffffffffffffffffffffffff168173ffffffffffffffffffffffffffffffffffffffff16145b8061139d5750600073ffffffffffffffffffffffffffffffffffffffff168173ffffffffffffffffffffffffffffffffffffffff16145b6113dc576040517f08c379a00000000000000000000000000000000000000000000000000000000081526004016113d390613e78565b60405180910390fd5b6000841161141f576040517f08c379a000000000000000000000000000000000000000000000000000000000815260040161141690613ee4565b60405180910390fd5b60008660405161142f919061357e565b908152602001604051809103902060030160009054906101000a900473ffffffffffffffffffffffffffffffffffffffff1673ffffffffffffffffffffffffffffffffffffffff163373ffffffffffffffffffffffffffffffffffffffff16036114ce576040517f08c379a00000000000000000000000000000000000000000000000000000000081526004016114c590613f76565b60405180910390fd5b600073ffffffffffffffffffffffffffffffffffffffff168573ffffffffffffffffffffffffffffffffffffffff160361153d576040517f08c379a000000000000000000000000000000000000000000000000000000000815260040161153490613fe2565b60405180910390fd5b61156a3330868873ffffffffffffffffffffffffffffffffffffffff1661283d909392919063ffffffff16565b600160008760405161157c919061357e565b9081526020016040518091039020600501600082825461159c9190614002565b92505081905550836003876040516115b4919061357e565b908152602001604051809103902060008773ffffffffffffffffffffffffffffffffffffffff1673ffffffffffffffffffffffffffffffffffffffff168152602001908152602001600020600082825461160e9190614002565b92505081905550600186604051611625919061357e565b908152602001604051809103902060405180608001604052803373ffffffffffffffffffffffffffffffffffffffff1681526020018773ffffffffffffffffffffffffffffffffffffffff16815260200186815260200142815250908060018154018082558091505060019003906000526020600020906004020160009091909190915060008201518160000160006101000a81548173ffffffffffffffffffffffffffffffffffffffff021916908373ffffffffffffffffffffffffffffffffffffffff16021790555060208201518160010160006101000a81548173ffffffffffffffffffffffffffffffffffffffff021916908373ffffffffffffffffffffffffffffffffffffffff16021790555060408201518160020155606082015181600301555050600160028760405161175f919061357e565b908152602001604051809103902060003373ffffffffffffffffffffffffffffffffffffffff1673ffffffffffffffffffffffffffffffffffffffff16815260200190815260200160002060006101000a81548160ff021916908315150217905550856040516117cf919061357e565b60405180910390207fa7707f2865fc04f6ef67c33a50d3c12608ca584a5e9abd58f5e35b69a85fead033878760405161180a9392919061378b565b60405180910390a2505050505050565b600060038360405161182c919061357e565b908152602001604051809103902060008373ffffffffffffffffffffffffffffffffffffffff1673ffffffffffffffffffffffffffffffffffffffff16815260200190815260200160002054905092915050565b6060600182604051611892919061357e565b9081526020016040518091039020805480602002602001604051908101604052809291908181526020016000905b828210156119b257838290600052602060002090600402016040518060800160405290816000820160009054906101000a900473ffffffffffffffffffffffffffffffffffffffff1673ffffffffffffffffffffffffffffffffffffffff1673ffffffffffffffffffffffffffffffffffffffff1681526020016001820160009054906101000a900473ffffffffffffffffffffffffffffffffffffffff1673ffffffffffffffffffffffffffffffffffffffff1673ffffffffffffffffffffffffffffffffffffffff16815260200160028201548152602001600382015481525050815260200190600101906118c0565b505050509050919050565b60018280516020810182018051848252602083016020850120818352809550505050505081815481106119ef57600080fd5b9060005260206000209060040201600091509150508060000160009054906101000a900473ffffffffffffffffffffffffffffffffffffffff16908060010160009054906101000a900473ffffffffffffffffffffffffffffffffffffffff16908060020154908060030154905084565b600081565b73833589fcd6edb6e08f4c7c32d4f71b54bda0291381565b60048181548110611a8d57600080fd5b906000526020600020016000915090508054611aa8906139a1565b80601f0160208091040260200160405190810160405280929190818152602001828054611ad4906139a1565b8015611b215780601f10611af657610100808354040283529160200191611b21565b820191906000526020600020905b815481529060010190602001808311611b0457829003601f168201915b505050505081565b80600081604051611b3a919061357e565b908152602001604051809103902060070160009054906101000a900460ff16611b98576040517f08c379a0000000000000000000000000000000000000000000000000000000008152600401611b8f906135e1565b60405180910390fd5b81600281604051611ba9919061357e565b908152602001604051809103902060003373ffffffffffffffffffffffffffffffffffffffff1673ffffffffffffffffffffffffffffffffffffffff16815260200190815260200160002060009054906101000a900460ff1615611c42576040517f08c379a0000000000000000000000000000000000000000000000000000000008152600401611c3990613e0c565b60405180910390fd5b60003411611c85576040517f08c379a0000000000000000000000000000000000000000000000000000000008152600401611c7c90614082565b60405180910390fd5b600083604051611c95919061357e565b908152602001604051809103902060030160009054906101000a900473ffffffffffffffffffffffffffffffffffffffff1673ffffffffffffffffffffffffffffffffffffffff163373ffffffffffffffffffffffffffffffffffffffff1603611d34576040517f08c379a0000000000000000000000000000000000000000000000000000000008152600401611d2b90613f76565b60405180910390fd5b34600084604051611d45919061357e565b90815260200160405180910390206004016000828254611d659190614002565b925050819055506001600084604051611d7e919061357e565b90815260200160405180910390206005016000828254611d9e9190614002565b9250508190555034600384604051611db6919061357e565b908152602001604051809103902060008073ffffffffffffffffffffffffffffffffffffffff1673ffffffffffffffffffffffffffffffffffffffff1681526020019081526020016000206000828254611e109190614002565b92505081905550600183604051611e27919061357e565b908152602001604051809103902060405180608001604052803373ffffffffffffffffffffffffffffffffffffffff168152602001600073ffffffffffffffffffffffffffffffffffffffff16815260200134815260200142815250908060018154018082558091505060019003906000526020600020906004020160009091909190915060008201518160000160006101000a81548173ffffffffffffffffffffffffffffffffffffffff021916908373ffffffffffffffffffffffffffffffffffffffff16021790555060208201518160010160006101000a81548173ffffffffffffffffffffffffffffffffffffffff021916908373ffffffffffffffffffffffffffffffffffffffff160217905550604082015181600201556060820151816003015550506001600284604051611f62919061357e565b908152602001604051809103902060003373ffffffffffffffffffffffffffffffffffffffff1673ffffffffffffffffffffffffffffffffffffffff16815260200190815260200160002060006101000a81548160ff02191690831515021790555082604051611fd2919061357e565b60405180910390207fa7707f2865fc04f6ef67c33a50d3c12608ca584a5e9abd58f5e35b69a85fead03360003460405161200e9392919061378b565b60405180910390a2505050565b6000600480549050905090565b612030612961565b600082604051612040919061357e565b90815260200160405180910390206040518061010001604052908160008201805461206a906139a1565b80601f0160208091040260200160405190810160405280929190818152602001828054612096906139a1565b80156120e35780601f106120b8576101008083540402835291602001916120e3565b820191906000526020600020905b8154815290600101906020018083116120c657829003601f168201915b505050505081526020016001820180546120fc906139a1565b80601f0160208091040260200160405190810160405280929190818152602001828054612128906139a1565b80156121755780601f1061214a57610100808354040283529160200191612175565b820191906000526020600020905b81548152906001019060200180831161215857829003601f168201915b5050505050815260200160028201805461218e906139a1565b80601f01602080910402602001604051908101604052809291908181526020018280546121ba906139a1565b80156122075780601f106121dc57610100808354040283529160200191612207565b820191906000526020600020905b8154815290600101906020018083116121ea57829003601f168201915b505050505081526020016003820160009054906101000a900473ffffffffffffffffffffffffffffffffffffffff1673ffffffffffffffffffffffffffffffffffffffff1673ffffffffffffffffffffffffffffffffffffffff1681526020016004820154815260200160058201548152602001600682015481526020016007820160009054906101000a900460ff1615151515815250509050919050565b600081565b6000818051602081018201805184825260208301602085012081835280955050505050506000915090508060000180546122e4906139a1565b80601f0160208091040260200160405190810160405280929190818152602001828054612310906139a1565b801561235d5780601f106123325761010080835404028352916020019161235d565b820191906000526020600020905b81548152906001019060200180831161234057829003601f168201915b505050505090806001018054612372906139a1565b80601f016020809104026020016040519081016040528092919081815260200182805461239e906139a1565b80156123eb5780601f106123c0576101008083540402835291602001916123eb565b820191906000526020600020905b8154815290600101906020018083116123ce57829003601f168201915b505050505090806002018054612400906139a1565b80601f016020809104026020016040519081016040528092919081815260200182805461242c906139a1565b80156124795780601f1061244e57610100808354040283529160200191612479565b820191906000526020600020905b81548152906001019060200180831161245c57829003601f168201915b5050505050908060030160009054906101000a900473ffffffffffffffffffffffffffffffffffffffff16908060040154908060050154908060060154908060070160009054906101000a900460ff16905088565b60606000600367ffffffffffffffff8111156124ed576124ec612a1d565b5b60405190808252806020026020018201604052801561252657816020015b6125136129be565b81526020019060019003908161250b5790505b5090506040518060400160405280600073ffffffffffffffffffffffffffffffffffffffff168152602001600385604051612561919061357e565b908152602001604051809103902060008073ffffffffffffffffffffffffffffffffffffffff1673ffffffffffffffffffffffffffffffffffffffff16815260200190815260200160002054815250816000815181106125c4576125c3613c80565b5b6020026020010181905250604051806040016040528073833589fcd6edb6e08f4c7c32d4f71b54bda0291373ffffffffffffffffffffffffffffffffffffffff16815260200160038560405161261a919061357e565b9081526020016040518091039020600073833589fcd6edb6e08f4c7c32d4f71b54bda0291373ffffffffffffffffffffffffffffffffffffffff1673ffffffffffffffffffffffffffffffffffffffff168152602001908152602001600020548152508160018151811061269157612690613c80565b5b60200260200101819052506040518060400160405280600073ffffffffffffffffffffffffffffffffffffffff1681526020016003856040516126d4919061357e565b908152602001604051809103902060008073ffffffffffffffffffffffffffffffffffffffff1673ffffffffffffffffffffffffffffffffffffffff168152602001908152602001600020548152508160028151811061273757612736613c80565b5b602002602001018190525080915050919050565b600060028360405161275d919061357e565b908152602001604051809103902060008373ffffffffffffffffffffffffffffffffffffffff1673ffffffffffffffffffffffffffffffffffffffff16815260200190815260200160002060009054906101000a900460ff16905092915050565b612838838473ffffffffffffffffffffffffffffffffffffffff1663a9059cbb85856040516024016127f19291906140a2565b604051602081830303815290604052915060e01b6020820180517bffffffffffffffffffffffffffffffffffffffffffffffffffffffff83818316178352505050506128bf565b505050565b6128b9848573ffffffffffffffffffffffffffffffffffffffff166323b872dd8686866040516024016128729392919061378b565b604051602081830303815290604052915060e01b6020820180517bffffffffffffffffffffffffffffffffffffffffffffffffffffffff83818316178352505050506128bf565b50505050565b600080602060008451602086016000885af1806128e2576040513d6000823e3d81fd5b3d9250600051915050600082146128fd576001811415612919565b60008473ffffffffffffffffffffffffffffffffffffffff163b145b1561295b57836040517f5274afe7000000000000000000000000000000000000000000000000000000008152600401612952919061321b565b60405180910390fd5b50505050565b604051806101000160405280606081526020016060815260200160608152602001600073ffffffffffffffffffffffffffffffffffffffff1681526020016000815260200160008152602001600081526020016000151581525090565b6040518060400160405280600073ffffffffffffffffffffffffffffffffffffffff168152602001600081525090565b6000604051905090565b600080fd5b600080fd5b600080fd5b600080fd5b6000601f19601f8301169050919050565b7f4e487b7100000000000000000000000000000000000000000000000000000000600052604160045260246000fd5b612a5582612a0c565b810181811067ffffffffffffffff82111715612a7457612a73612a1d565b5b80604052505050565b6000612a876129ee565b9050612a938282612a4c565b919050565b600067ffffffffffffffff821115612ab357612ab2612a1d565b5b612abc82612a0c565b9050602081019050919050565b82818337600083830152505050565b6000612aeb612ae684612a98565b612a7d565b905082815260208101848484011115612b0757612b06612a07565b5b612b12848285612ac9565b509392505050565b600082601f830112612b2f57612b2e612a02565b5b8135612b3f848260208601612ad8565b91505092915050565b600060208284031215612b5e57612b5d6129f8565b5b600082013567ffffffffffffffff811115612b7c57612b7b6129fd565b5b612b8884828501612b1a565b91505092915050565b600073ffffffffffffffffffffffffffffffffffffffff82169050919050565b6000612bbc82612b91565b9050919050565b612bcc81612bb1565b8114612bd757600080fd5b50565b600081359050612be981612bc3565b92915050565b60008060408385031215612c0657612c056129f8565b5b600083013567ffffffffffffffff811115612c2457612c236129fd565b5b612c3085828601612b1a565b9250506020612c4185828601612bda565b9150509250929050565b60008115159050919050565b612c6081612c4b565b82525050565b6000602082019050612c7b6000830184612c57565b92915050565b6000819050919050565b612c9481612c81565b82525050565b6000602082019050612caf6000830184612c8b565b92915050565b600080600060608486031215612cce57612ccd6129f8565b5b600084013567ffffffffffffffff811115612cec57612ceb6129fd565b5b612cf886828701612b1a565b935050602084013567ffffffffffffffff811115612d1957612d186129fd565b5b612d2586828701612b1a565b925050604084013567ffffffffffffffff811115612d4657612d456129fd565b5b612d5286828701612b1a565b9150509250925092565b600081519050919050565b600082825260208201905092915050565b6000819050602082019050919050565b600081519050919050565b600082825260208201905092915050565b60005b83811015612dc2578082015181840152602081019050612da7565b60008484015250505050565b6000612dd982612d88565b612de38185612d93565b9350612df3818560208601612da4565b612dfc81612a0c565b840191505092915050565b612e1081612bb1565b82525050565b612e1f81612c81565b82525050565b612e2e81612c4b565b82525050565b6000610100830160008301518482036000860152612e528282612dce565b91505060208301518482036020860152612e6c8282612dce565b91505060408301518482036040860152612e868282612dce565b9150506060830151612e9b6060860182612e07565b506080830151612eae6080860182612e16565b5060a0830151612ec160a0860182612e16565b5060c0830151612ed460c0860182612e16565b5060e0830151612ee760e0860182612e25565b508091505092915050565b6000612efe8383612e34565b905092915050565b6000602082019050919050565b6000612f1e82612d5c565b612f288185612d67565b935083602082028501612f3a85612d78565b8060005b85811015612f765784840389528151612f578582612ef2565b9450612f6283612f06565b925060208a01995050600181019050612f3e565b50829750879550505050505092915050565b60006020820190508181036000830152612fa28184612f13565b905092915050565b612fb381612c81565b8114612fbe57600080fd5b50565b600081359050612fd081612faa565b92915050565b600080600060608486031215612fef57612fee6129f8565b5b600084013567ffffffffffffffff81111561300d5761300c6129fd565b5b61301986828701612b1a565b935050602061302a86828701612bda565b925050604061303b86828701612fc1565b9150509250925092565b600081519050919050565b600082825260208201905092915050565b6000819050602082019050919050565b6080820160008201516130876000850182612e07565b50602082015161309a6020850182612e07565b5060408201516130ad6040850182612e16565b5060608201516130c06060850182612e16565b50505050565b60006130d28383613071565b60808301905092915050565b6000602082019050919050565b60006130f682613045565b6131008185613050565b935061310b83613061565b8060005b8381101561313c57815161312388826130c6565b975061312e836130de565b92505060018101905061310f565b5085935050505092915050565b6000602082019050818103600083015261316381846130eb565b905092915050565b60008060408385031215613182576131816129f8565b5b600083013567ffffffffffffffff8111156131a05761319f6129fd565b5b6131ac85828601612b1a565b92505060206131bd85828601612fc1565b9150509250929050565b6131d081612bb1565b82525050565b60006080820190506131eb60008301876131c7565b6131f860208301866131c7565b6132056040830185612c8b565b6132126060830184612c8b565b95945050505050565b600060208201905061323060008301846131c7565b92915050565b60006020828403121561324c5761324b6129f8565b5b600061325a84828501612fc1565b91505092915050565b600082825260208201905092915050565b600061327f82612d88565b6132898185613263565b9350613299818560208601612da4565b6132a281612a0c565b840191505092915050565b600060208201905081810360008301526132c78184613274565b905092915050565b60006101008301600083015184820360008601526132ed8282612dce565b915050602083015184820360208601526133078282612dce565b915050604083015184820360408601526133218282612dce565b91505060608301516133366060860182612e07565b5060808301516133496080860182612e16565b5060a083015161335c60a0860182612e16565b5060c083015161336f60c0860182612e16565b5060e083015161338260e0860182612e25565b508091505092915050565b600060208201905081810360008301526133a781846132cf565b905092915050565b60006101008201905081810360008301526133ca818b613274565b905081810360208301526133de818a613274565b905081810360408301526133f28189613274565b905061340160608301886131c7565b61340e6080830187612c8b565b61341b60a0830186612c8b565b61342860c0830185612c8b565b61343560e0830184612c57565b9998505050505050505050565b600081519050919050565b600082825260208201905092915050565b6000819050602082019050919050565b6040820160008201516134846000850182612e07565b5060208201516134976020850182612e16565b50505050565b60006134a9838361346e565b60408301905092915050565b6000602082019050919050565b60006134cd82613442565b6134d7818561344d565b93506134e28361345e565b8060005b838110156135135781516134fa888261349d565b9750613505836134b5565b9250506001810190506134e6565b5085935050505092915050565b6000602082019050818103600083015261353a81846134c2565b905092915050565b600081905092915050565b600061355882612d88565b6135628185613542565b9350613572818560208601612da4565b80840191505092915050565b600061358a828461354d565b915081905092915050565b7f4964656120646f6573206e6f7420657869737400000000000000000000000000600082015250565b60006135cb601383613263565b91506135d682613595565b602082019050919050565b600060208201905081810360008301526135fa816135be565b9050919050565b7f4f6e6c792063726561746f722063616e20776974686472617700000000000000600082015250565b6000613637601983613263565b915061364282613601565b602082019050919050565b600060208201905081810360008301526136668161362a565b9050919050565b7f4e6f2066756e647320746f207769746864726177000000000000000000000000600082015250565b60006136a3601483613263565b91506136ae8261366d565b602082019050919050565b600060208201905081810360008301526136d281613696565b9050919050565b600081905092915050565b50565b60006136f46000836136d9565b91506136ff826136e4565b600082019050919050565b6000613715826136e7565b9150819050919050565b7f455448207472616e73666572206661696c656400000000000000000000000000600082015250565b6000613755601383613263565b91506137608261371f565b602082019050919050565b6000602082019050818103600083015261378481613748565b9050919050565b60006060820190506137a060008301866131c7565b6137ad60208301856131c7565b6137ba6040830184612c8b565b949350505050565b7f49442063616e6e6f7420626520656d7074790000000000000000000000000000600082015250565b60006137f8601283613263565b9150613803826137c2565b602082019050919050565b60006020820190508181036000830152613827816137eb565b9050919050565b7f5469746c652063616e6e6f7420626520656d7074790000000000000000000000600082015250565b6000613864601583613263565b915061386f8261382e565b602082019050919050565b6000602082019050818103600083015261389381613857565b9050919050565b7f4465736372697074696f6e2063616e6e6f7420626520656d7074790000000000600082015250565b60006138d0601b83613263565b91506138db8261389a565b602082019050919050565b600060208201905081810360008301526138ff816138c3565b9050919050565b7f4964656120494420616c72656164792065786973747300000000000000000000600082015250565b600061393c601683613263565b915061394782613906565b602082019050919050565b6000602082019050818103600083015261396b8161392f565b9050919050565b7f4e487b7100000000000000000000000000000000000000000000000000000000600052602260045260246000fd5b600060028204905060018216806139b957607f821691505b6020821081036139cc576139cb613972565b5b50919050565b60008190508160005260206000209050919050565b60006020601f8301049050919050565b600082821b905092915050565b600060088302613a347fffffffffffffffffffffffffffffffffffffffffffffffffffffffffffffffff826139f7565b613a3e86836139f7565b95508019841693508086168417925050509392505050565b6000819050919050565b6000613a7b613a76613a7184612c81565b613a56565b612c81565b9050919050565b6000819050919050565b613a9583613a60565b613aa9613aa182613a82565b848454613a04565b825550505050565b600090565b613abe613ab1565b613ac9818484613a8c565b505050565b5b81811015613aed57613ae2600082613ab6565b600181019050613acf565b5050565b601f821115613b3257613b03816139d2565b613b0c846139e7565b81016020851015613b1b578190505b613b2f613b27856139e7565b830182613ace565b50505b505050565b600082821c905092915050565b6000613b5560001984600802613b37565b1980831691505092915050565b6000613b6e8383613b44565b9150826002028217905092915050565b613b8782612d88565b67ffffffffffffffff811115613ba057613b9f612a1d565b5b613baa82546139a1565b613bb5828285613af1565b600060209050601f831160018114613be85760008415613bd6578287015190505b613be08582613b62565b865550613c48565b601f198416613bf6866139d2565b60005b82811015613c1e57848901518255600182019150602085019450602081019050613bf9565b86831015613c3b5784890151613c37601f891682613b44565b8355505b6001600288020188555050505b505050505050565b60006040820190508181036000830152613c6a8185613274565b9050613c7960208301846131c7565b9392505050565b7f4e487b7100000000000000000000000000000000000000000000000000000000600052603260045260246000fd5b60008154613cbc816139a1565b613cc68186613542565b94506001821660008114613ce15760018114613cf657613d29565b60ff1983168652811515820286019350613d29565b613cff856139d2565b60005b83811015613d2157815481890152600182019150602081019050613d02565b838801955050505b50505092915050565b6000613d3e8284613caf565b915081905092915050565b7f4e487b7100000000000000000000000000000000000000000000000000000000600052601160045260246000fd5b6000613d8382612c81565b91507fffffffffffffffffffffffffffffffffffffffffffffffffffffffffffffffff8203613db557613db4613d49565b5b600182019050919050565b7f416c7265616479206261636b6564207468697320696465610000000000000000600082015250565b6000613df6601883613263565b9150613e0182613dc0565b602082019050919050565b60006020820190508181036000830152613e2581613de9565b9050919050565b7f556e737570706f7274656420746f6b656e000000000000000000000000000000600082015250565b6000613e62601183613263565b9150613e6d82613e2c565b602082019050919050565b60006020820190508181036000830152613e9181613e55565b9050919050565b7f416d6f756e74206d7573742062652067726561746572207468616e2030000000600082015250565b6000613ece601d83613263565b9150613ed982613e98565b602082019050919050565b60006020820190508181036000830152613efd81613ec1565b9050919050565b7f43726561746f722063616e6e6f74206261636b207468656972206f776e20696460008201527f6561000000000000000000000000000000000000000000000000000000000000602082015250565b6000613f60602283613263565b9150613f6b82613f04565b604082019050919050565b60006020820190508181036000830152613f8f81613f53565b9050919050565b7f557365206261636b496465615769746845544820666f72204554480000000000600082015250565b6000613fcc601b83613263565b9150613fd782613f96565b602082019050919050565b60006020820190508181036000830152613ffb81613fbf565b9050919050565b600061400d82612c81565b915061401883612c81565b92508282019050808211156140305761402f613d49565b5b92915050565b7f4d7573742073656e642045544820746f206261636b2069646561000000000000600082015250565b600061406c601a83613263565b915061407782614036565b602082019050919050565b6000602082019050818103600083015261409b8161405f565b9050919050565b60006040820190506140b760008301856131c7565b6140c46020830184612c8b565b939250505056fea2646970667358221220fa7ce3fce390d3fcd704e0396aacf353dc57a2f556ff85b242b1dfc3b896c5f664736f6c63430008140033",
  "linkReferences": {},
  "deployedLinkReferences": {}
}